{
  "_format": "hh-sol-artifact-1",
  "contractName": "Contract",
  "sourceName": "contracts/Contract.sol",
  "abi": [
    {
      "inputs": [],
      "stateMutability": "nonpayable",
      "type": "constructor"
    },
    {
      "anonymous": false,
      "inputs": [
        {
          "indexed": true,
          "internalType": "uint256",
          "name": "result",
          "type": "uint256"
        },
        {
          "indexed": true,
          "internalType": "uint256",
          "name": "amount",
          "type": "uint256"
        },
        {
          "indexed": true,
          "internalType": "uint256",
          "name": "newBalance",
          "type": "uint256"
        }
      ],
      "name": "Result",
      "type": "event"
    },
    {
      "inputs": [
        {
          "internalType": "address",
          "name": "",
          "type": "address"
        }
      ],
      "name": "balances",
      "outputs": [
        {
          "internalType": "uint256",
          "name": "",
          "type": "uint256"
        }
      ],
      "stateMutability": "view",
      "type": "function"
    },
    {
      "inputs": [
        {
          "internalType": "uint256",
          "name": "amount",
          "type": "uint256"
        },
        {
          "internalType": "uint256",
          "name": "selection",
          "type": "uint256"
        }
      ],
      "name": "bet",
      "outputs": [],
      "stateMutability": "nonpayable",
      "type": "function"
    }
  ],
  "bytecode": "0x608060405234801561001057600080fd5b506103e86000803373ffffffffffffffffffffffffffffffffffffffff1673ffffffffffffffffffffffffffffffffffffffff168152602001908152602001600020819055506103e8600080731f3958b482d1ff1660cee66f8341bdc1329de4e073ffffffffffffffffffffffffffffffffffffffff1673ffffffffffffffffffffffffffffffffffffffff16815260200190815260200160002081905550610673806100be6000396000f3fe608060405234801561001057600080fd5b50600436106100365760003560e01c806327e235e31461003b5780636ffcc7191461006b575b600080fd5b610055600480360381019061005091906103a2565b610087565b604051610062919061049c565b60405180910390f35b610085600480360381019061008091906103cb565b61009f565b005b60006020528060005260406000206000915090505481565b600381106100e2576040517f08c379a00000000000000000000000000000000000000000000000000000000081526004016100d99061045c565b60405180910390fd5b6000803373ffffffffffffffffffffffffffffffffffffffff1673ffffffffffffffffffffffffffffffffffffffff168152602001908152602001600020548210610162576040517f08c379a00000000000000000000000000000000000000000000000000000000081526004016101599061047c565b60405180910390fd5b600281141561023357816000803373ffffffffffffffffffffffffffffffffffffffff1673ffffffffffffffffffffffffffffffffffffffff16815260200190815260200160002060008282546101b991906104c8565b925050819055506000803373ffffffffffffffffffffffffffffffffffffffff1673ffffffffffffffffffffffffffffffffffffffff168152602001908152602001600020548260027f93a6d32e3308943db7958716809830759672c9f1f8aa3ca6ecf89278a74fc6b660405160405180910390a4610374565b60018114156102af576000803373ffffffffffffffffffffffffffffffffffffffff1673ffffffffffffffffffffffffffffffffffffffff168152602001908152602001600020548260017f93a6d32e3308943db7958716809830759672c9f1f8aa3ca6ecf89278a74fc6b660405160405180910390a4610373565b816000803373ffffffffffffffffffffffffffffffffffffffff1673ffffffffffffffffffffffffffffffffffffffff16815260200190815260200160002060008282546102fd919061051e565b925050819055506000803373ffffffffffffffffffffffffffffffffffffffff1673ffffffffffffffffffffffffffffffffffffffff168152602001908152602001600020548260007f93a6d32e3308943db7958716809830759672c9f1f8aa3ca6ecf89278a74fc6b660405160405180910390a45b5b5050565b6000813590506103878161060f565b92915050565b60008135905061039c81610626565b92915050565b6000602082840312156103b457600080fd5b60006103c284828501610378565b91505092915050565b600080604083850312156103de57600080fd5b60006103ec8582860161038d565b92505060206103fd8582860161038d565b9150509250929050565b60006104146011836104b7565b915061041f826105bd565b602082019050919050565b60006104376010836104b7565b9150610442826105e6565b602082019050919050565b61045681610584565b82525050565b6000602082019050818103600083015261047581610407565b9050919050565b600060208201905081810360008301526104958161042a565b9050919050565b60006020820190506104b1600083018461044d565b92915050565b600082825260208201905092915050565b60006104d382610584565b91506104de83610584565b9250827fffffffffffffffffffffffffffffffffffffffffffffffffffffffffffffffff038211156105135761051261058e565b5b828201905092915050565b600061052982610584565b915061053483610584565b9250828210156105475761054661058e565b5b828203905092915050565b600061055d82610564565b9050919050565b600073ffffffffffffffffffffffffffffffffffffffff82169050919050565b6000819050919050565b7f4e487b7100000000000000000000000000000000000000000000000000000000600052601160045260246000fd5b7f496e76616c69642073656c656374696f6e000000000000000000000000000000600082015250565b7f4e6f7420656e6f7567682066756e647300000000000000000000000000000000600082015250565b61061881610552565b811461062357600080fd5b50565b61062f81610584565b811461063a57600080fd5b5056fea2646970667358221220f78e0b0c6726947b0c0e2802d0447325a28adc93fa617e43d330568a9203de9d64736f6c63430008040033",
  "linkReferences": {},
  "deployedLinkReferences": {}
}